{
  "contractName": "PublicMessages",
  "abi": [
    {
      "inputs": [
        {
          "internalType": "uint256",
          "name": "_handlePrice",
          "type": "uint256"
        }
      ],
      "stateMutability": "nonpayable",
      "type": "constructor"
    },
    {
      "anonymous": false,
      "inputs": [
        {
          "indexed": false,
          "internalType": "address",
          "name": "_from",
          "type": "address"
        },
        {
          "indexed": false,
          "internalType": "string",
          "name": "_msg",
          "type": "string"
        }
      ],
      "name": "MessageSaved",
      "type": "event"
    },
    {
      "anonymous": false,
      "inputs": [
        {
          "indexed": false,
          "internalType": "address",
          "name": "_from",
          "type": "address"
        }
      ],
      "name": "SendingMessage",
      "type": "event"
    },
    {
      "inputs": [
        {
          "internalType": "address",
          "name": "",
          "type": "address"
        }
      ],
      "name": "handles",
      "outputs": [
        {
          "internalType": "string",
          "name": "",
          "type": "string"
        }
      ],
      "stateMutability": "view",
      "type": "function"
    },
    {
      "inputs": [
        {
          "internalType": "uint256",
          "name": "_handlePrice",
          "type": "uint256"
        }
      ],
      "name": "setHandlePrice",
      "outputs": [],
      "stateMutability": "nonpayable",
      "type": "function"
    },
    {
      "inputs": [],
      "name": "getHandlePrice",
      "outputs": [
        {
          "internalType": "uint256",
          "name": "",
          "type": "uint256"
        }
      ],
      "stateMutability": "view",
      "type": "function"
    },
    {
      "inputs": [
        {
          "internalType": "string",
          "name": "_handle",
          "type": "string"
        }
      ],
      "name": "setHandle",
      "outputs": [],
      "stateMutability": "payable",
      "type": "function"
    },
    {
      "inputs": [],
      "name": "getHandle",
      "outputs": [
        {
          "internalType": "string",
          "name": "",
          "type": "string"
        }
      ],
      "stateMutability": "view",
      "type": "function"
    },
    {
      "inputs": [
        {
          "internalType": "string",
          "name": "_message",
          "type": "string"
        }
      ],
      "name": "sendMessage",
      "outputs": [],
      "stateMutability": "nonpayable",
      "type": "function"
    },
    {
      "inputs": [
        {
          "internalType": "uint256",
          "name": "_page",
          "type": "uint256"
        },
        {
          "internalType": "uint256",
          "name": "_count",
          "type": "uint256"
        }
      ],
      "name": "getMessages",
      "outputs": [
        {
          "components": [
            {
              "internalType": "address",
              "name": "sender",
              "type": "address"
            },
            {
              "internalType": "string",
              "name": "message",
              "type": "string"
            }
          ],
          "internalType": "struct PublicMessages.Message[]",
          "name": "",
          "type": "tuple[]"
        }
      ],
      "stateMutability": "view",
      "type": "function"
    }
  ],
  "bytecode": "0x60806040523480156200001157600080fd5b506040516200175e3803806200175e8339818101604052810190620000379190620001d8565b33600160006101000a81548173ffffffffffffffffffffffffffffffffffffffff021916908373ffffffffffffffffffffffffffffffffffffffff160217905550806000819055506040518060400160405280600581526020017f6f776e6572000000000000000000000000000000000000000000000000000000815250600360003373ffffffffffffffffffffffffffffffffffffffff1673ffffffffffffffffffffffffffffffffffffffff16815260200190815260200160002090805190602001906200010992919062000111565b505062000298565b8280546200011f9062000214565b90600052602060002090601f0160209004810192826200014357600085556200018f565b82601f106200015e57805160ff19168380011785556200018f565b828001600101855582156200018f579182015b828111156200018e57825182559160200191906001019062000171565b5b5090506200019e9190620001a2565b5090565b5b80821115620001bd576000816000905550600101620001a3565b5090565b600081519050620001d2816200027e565b92915050565b600060208284031215620001f157620001f062000279565b5b60006200020184828501620001c1565b91505092915050565b6000819050919050565b600060028204905060018216806200022d57607f821691505b602082108114156200024457620002436200024a565b5b50919050565b7f4e487b7100000000000000000000000000000000000000000000000000000000600052602260045260246000fd5b600080fd5b62000289816200020a565b81146200029557600080fd5b50565b6114b680620002a86000396000f3fe6080604052600436106100705760003560e01c80637ebea0d81161004e5780637ebea0d8146100f75780638a591c8a14610122578063b88012ef1461015f578063e16d31b21461018857610070565b80634541c5fb14610075578063469c8110146100915780634be8362d146100ba575b600080fd5b61008f600480360381019061008a9190610b85565b6101b3565b005b34801561009d57600080fd5b506100b860048036038101906100b39190610b85565b6102a1565b005b3480156100c657600080fd5b506100e160048036038101906100dc9190610bfb565b61045f565b6040516100ee9190610e77565b60405180910390f35b34801561010357600080fd5b5061010c6107d3565b6040516101199190610f3b565b60405180910390f35b34801561012e57600080fd5b5061014960048036038101906101449190610b58565b6107dc565b6040516101569190610e99565b60405180910390f35b34801561016b57600080fd5b5061018660048036038101906101819190610bce565b61087c565b005b34801561019457600080fd5b5061019d610916565b6040516101aa9190610e99565b60405180910390f35b60005434146101f7576040517f08c379a00000000000000000000000000000000000000000000000000000000081526004016101ee90610f1b565b60405180910390fd5b600281511015801561020b5750600a815111155b61024a576040517f08c379a000000000000000000000000000000000000000000000000000000000815260040161024190610ebb565b60405180910390fd5b80600360003373ffffffffffffffffffffffffffffffffffffffff1673ffffffffffffffffffffffffffffffffffffffff168152602001908152602001600020908051906020019061029d9291906109eb565b5050565b6002600360003373ffffffffffffffffffffffffffffffffffffffff1673ffffffffffffffffffffffffffffffffffffffff16815260200190815260200160002080546102ed9061114f565b90501015610330576040517f08c379a000000000000000000000000000000000000000000000000000000000815260040161032790610edb565b60405180910390fd5b7f3e9983012c83ead75905ee8887f427aa91356048f63ff9e3341a7ae6851d94ab3360405161035f9190610e2c565b60405180910390a1600260405180604001604052803373ffffffffffffffffffffffffffffffffffffffff16815260200183815250908060018154018082558091505060019003906000526020600020906002020160009091909190915060008201518160000160006101000a81548173ffffffffffffffffffffffffffffffffffffffff021916908373ffffffffffffffffffffffffffffffffffffffff16021790555060208201518160010190805190602001906104209291906109eb565b5050507f425852ddcd3be5660fd4d98e94725156ae337501aa43121f08df4c135a26fae83382604051610454929190610e47565b60405180910390a150565b60606002600360003373ffffffffffffffffffffffffffffffffffffffff1673ffffffffffffffffffffffffffffffffffffffff16815260200190815260200160002080546104ad9061114f565b905010156104f0576040517f08c379a00000000000000000000000000000000000000000000000000000000081526004016104e790610edb565b60405180910390fd5b60006002805490509050600081141561056057600067ffffffffffffffff81111561051e5761051d6112e8565b5b60405190808252806020026020018201604052801561055757816020015b610544610a71565b81526020019060019003908161053c5790505b509150506107cd565b6000838261056e9190611012565b90506000806000838811156105b957868561058991906111fb565b9150600090506001878561059d9190611043565b866105a8919061109d565b6105b2919061109d565b9250610607565b86915086886105c89190611043565b856105d3919061109d565b905060018760018a6105e5919061109d565b6105ef9190611043565b866105fa919061109d565b610604919061109d565b92505b60008267ffffffffffffffff811115610623576106226112e8565b5b60405190808252806020026020018201604052801561065c57816020015b610649610a71565b8152602001906001900390816106415790505b5090506000808390505b8581116107c15760028181548110610681576106806112b9565b5b90600052602060002090600202016040518060400160405290816000820160009054906101000a900473ffffffffffffffffffffffffffffffffffffffff1673ffffffffffffffffffffffffffffffffffffffff1673ffffffffffffffffffffffffffffffffffffffff1681526020016001820180546107009061114f565b80601f016020809104026020016040519081016040528092919081815260200182805461072c9061114f565b80156107795780601f1061074e57610100808354040283529160200191610779565b820191906000526020600020905b81548152906001019060200180831161075c57829003601f168201915b505050505081525050838381518110610795576107946112b9565b5b602002602001018190525081806107ab906111b2565b92505080806107b9906111b2565b915050610666565b50819750505050505050505b92915050565b60008054905090565b600360205280600052604060002060009150905080546107fb9061114f565b80601f01602080910402602001604051908101604052809291908181526020018280546108279061114f565b80156108745780601f1061084957610100808354040283529160200191610874565b820191906000526020600020905b81548152906001019060200180831161085757829003601f168201915b505050505081565b600160009054906101000a900473ffffffffffffffffffffffffffffffffffffffff1673ffffffffffffffffffffffffffffffffffffffff163373ffffffffffffffffffffffffffffffffffffffff161461090c576040517f08c379a000000000000000000000000000000000000000000000000000000000815260040161090390610efb565b60405180910390fd5b8060008190555050565b60606000600360003373ffffffffffffffffffffffffffffffffffffffff1673ffffffffffffffffffffffffffffffffffffffff16815260200190815260200160002080546109649061114f565b80601f01602080910402602001604051908101604052809291908181526020018280546109909061114f565b80156109dd5780601f106109b2576101008083540402835291602001916109dd565b820191906000526020600020905b8154815290600101906020018083116109c057829003601f168201915b505050505090508091505090565b8280546109f79061114f565b90600052602060002090601f016020900481019282610a195760008555610a60565b82601f10610a3257805160ff1916838001178555610a60565b82800160010185558215610a60579182015b82811115610a5f578251825591602001919060010190610a44565b5b509050610a6d9190610aa1565b5090565b6040518060400160405280600073ffffffffffffffffffffffffffffffffffffffff168152602001606081525090565b5b80821115610aba576000816000905550600101610aa2565b5090565b6000610ad1610acc84610f7b565b610f56565b905082815260208101848484011115610aed57610aec61131c565b5b610af884828561110d565b509392505050565b600081359050610b0f81611452565b92915050565b600082601f830112610b2a57610b29611317565b5b8135610b3a848260208601610abe565b91505092915050565b600081359050610b5281611469565b92915050565b600060208284031215610b6e57610b6d611326565b5b6000610b7c84828501610b00565b91505092915050565b600060208284031215610b9b57610b9a611326565b5b600082013567ffffffffffffffff811115610bb957610bb8611321565b5b610bc584828501610b15565b91505092915050565b600060208284031215610be457610be3611326565b5b6000610bf284828501610b43565b91505092915050565b60008060408385031215610c1257610c11611326565b5b6000610c2085828601610b43565b9250506020610c3185828601610b43565b9150509250929050565b6000610c478383610de0565b905092915050565b610c58816110d1565b82525050565b610c67816110d1565b82525050565b6000610c7882610fbc565b610c828185610fdf565b935083602082028501610c9485610fac565b8060005b85811015610cd05784840389528151610cb18582610c3b565b9450610cbc83610fd2565b925060208a01995050600181019050610c98565b50829750879550505050505092915050565b6000610ced82610fc7565b610cf78185610ff0565b9350610d0781856020860161111c565b610d108161132b565b840191505092915050565b6000610d2682610fc7565b610d308185611001565b9350610d4081856020860161111c565b610d498161132b565b840191505092915050565b6000610d61602c83611001565b9150610d6c8261133c565b604082019050919050565b6000610d84601c83611001565b9150610d8f8261138b565b602082019050919050565b6000610da7602983611001565b9150610db2826113b4565b604082019050919050565b6000610dca603683611001565b9150610dd582611403565b604082019050919050565b6000604083016000830151610df86000860182610c4f565b5060208301518482036020860152610e108282610ce2565b9150508091505092915050565b610e2681611103565b82525050565b6000602082019050610e416000830184610c5e565b92915050565b6000604082019050610e5c6000830185610c5e565b8181036020830152610e6e8184610d1b565b90509392505050565b60006020820190508181036000830152610e918184610c6d565b905092915050565b60006020820190508181036000830152610eb38184610d1b565b905092915050565b60006020820190508181036000830152610ed481610d54565b9050919050565b60006020820190508181036000830152610ef481610d77565b9050919050565b60006020820190508181036000830152610f1481610d9a565b9050919050565b60006020820190508181036000830152610f3481610dbd565b9050919050565b6000602082019050610f506000830184610e1d565b92915050565b6000610f60610f71565b9050610f6c8282611181565b919050565b6000604051905090565b600067ffffffffffffffff821115610f9657610f956112e8565b5b610f9f8261132b565b9050602081019050919050565b6000819050602082019050919050565b600081519050919050565b600081519050919050565b6000602082019050919050565b600082825260208201905092915050565b600082825260208201905092915050565b600082825260208201905092915050565b600061101d82611103565b915061102883611103565b9250826110385761103761125b565b5b828204905092915050565b600061104e82611103565b915061105983611103565b9250817fffffffffffffffffffffffffffffffffffffffffffffffffffffffffffffffff04831182151516156110925761109161122c565b5b828202905092915050565b60006110a882611103565b91506110b383611103565b9250828210156110c6576110c561122c565b5b828203905092915050565b60006110dc826110e3565b9050919050565b600073ffffffffffffffffffffffffffffffffffffffff82169050919050565b6000819050919050565b82818337600083830152505050565b60005b8381101561113a57808201518184015260208101905061111f565b83811115611149576000848401525b50505050565b6000600282049050600182168061116757607f821691505b6020821081141561117b5761117a61128a565b5b50919050565b61118a8261132b565b810181811067ffffffffffffffff821117156111a9576111a86112e8565b5b80604052505050565b60006111bd82611103565b91507fffffffffffffffffffffffffffffffffffffffffffffffffffffffffffffffff8214156111f0576111ef61122c565b5b600182019050919050565b600061120682611103565b915061121183611103565b9250826112215761122061125b565b5b828206905092915050565b7f4e487b7100000000000000000000000000000000000000000000000000000000600052601160045260246000fd5b7f4e487b7100000000000000000000000000000000000000000000000000000000600052601260045260246000fd5b7f4e487b7100000000000000000000000000000000000000000000000000000000600052602260045260246000fd5b7f4e487b7100000000000000000000000000000000000000000000000000000000600052603260045260246000fd5b7f4e487b7100000000000000000000000000000000000000000000000000000000600052604160045260246000fd5b600080fd5b600080fd5b600080fd5b600080fd5b6000601f19601f8301169050919050565b7f506c65617365206769766520612068616e646c652077697468203220746f203160008201527f3020636861726163746572730000000000000000000000000000000000000000602082015250565b7f506c656173652063726561746520612068616e646c6520666972737400000000600082015250565b7f4f6e6c7920746865206f776e6572206f662074686520636f6e7472616374206860008201527f6173206163636573730000000000000000000000000000000000000000000000602082015250565b7f506c6561736520706179207468652072657175697265642068616e646c65207060008201527f7269636520746f20736574757020612068616e646c6500000000000000000000602082015250565b61145b816110d1565b811461146657600080fd5b50565b61147281611103565b811461147d57600080fd5b5056fea264697066735822122093e52c2973518d28153cf05be32fc03420851ee0c3502dfcc58a0e95d721837764736f6c63430008070033",
  "immutableReferences": {},
  "source": "// SPDX-License-Identifier: MIT\npragma solidity 0.8.7;\n\ncontract PublicMessages {\n  struct Message {\n    address sender;\n    string message;\n  }\n\n  uint256 handlePrice;\n  address private owner;\n  Message[] private chat;\n\n  mapping(address => string) public handles;\n\n  event SendingMessage(address _from);\n  event MessageSaved(address _from, string _msg);\n\n  constructor(uint256 _handlePrice) {\n    owner = msg.sender;\n    handlePrice = _handlePrice;\n    handles[msg.sender] = 'owner';\n  }\n\n  modifier onlyOwner() {\n    require(msg.sender == owner, 'Only the owner of the contract has access');\n    _;\n  }\n\n  modifier requireHandle() {\n    require(bytes(handles[msg.sender]).length >= 2, 'Please create a handle first');\n    _;\n  }\n\n  function setHandlePrice(uint256 _handlePrice) external onlyOwner {\n    handlePrice = _handlePrice;\n  }\n\n  function getHandlePrice() public view returns (uint256) {\n    return handlePrice;\n  }\n\n  function setHandle(string memory _handle) public payable {\n    require(msg.value == handlePrice, 'Please pay the required handle price to setup a handle');\n\n    require(bytes(_handle).length >= 2 && bytes(_handle).length <= 10, 'Please give a handle with 2 to 10 characters');\n\n    handles[msg.sender] = _handle;\n  }\n\n  function getHandle() public view returns (string memory) {\n    string memory handle = handles[msg.sender];\n\n    return handle;\n  }\n\n  function sendMessage(string memory _message) public requireHandle {\n    emit SendingMessage(msg.sender);\n    chat.push(Message({ sender: msg.sender, message: _message }));\n    emit MessageSaved(msg.sender, _message);\n  }\n\n  function getMessages(uint256 _page, uint256 _count) public view requireHandle returns (Message[] memory) {\n    uint256 len = chat.length;\n\n    if (len == 0) {\n      return new Message[](0);\n    }\n\n    uint256 maxPages = len / _count;\n\n    uint256 end;\n    uint256 size;\n    uint256 start;\n\n    if (_page > maxPages) {\n      size = len % _count;\n      start = 0;\n      end = len - maxPages * _count - 1;\n    } else {\n      size = _count;\n      start = len - (_page * _count);\n      end = len - (_page - 1) * _count - 1;\n    }\n\n    Message[] memory chatToReturn = new Message[](size);\n\n    uint256 counter = 0;\n    for (uint256 i = start; i <= end; i++) {\n      chatToReturn[counter] = chat[i];\n      counter++;\n    }\n\n    return chatToReturn;\n  }\n}\n",
  "sourcePath": "/media/ozes/26ECD8C8ECD89401/Programming/PROJECTS/Message DApp/blockchain/contracts/Messages.sol",
  "compiler": {
    "name": "solc",
    "version": "0.8.7+commit.e28d00a7.Emscripten.clang"
  },
  "schemaVersion": "3.4.3",
  "updatedAt": "2021-10-17T01:24:37.968Z",
  "devdoc": {
    "kind": "dev",
    "methods": {},
    "version": 1
  },
  "userdoc": {
    "kind": "user",
    "methods": {},
    "version": 1
  }
}